{
  "contractName": "CallerContract",
  "abi": [
    {
      "anonymous": false,
      "inputs": [
        {
          "indexed": true,
          "internalType": "address",
          "name": "previousOwner",
          "type": "address"
        },
        {
          "indexed": true,
          "internalType": "address",
          "name": "newOwner",
          "type": "address"
        }
      ],
      "name": "OwnershipTransferred",
      "type": "event"
    },
    {
      "anonymous": false,
      "inputs": [
        {
          "indexed": false,
          "internalType": "uint256",
          "name": "ethPrice",
          "type": "uint256"
        },
        {
          "indexed": false,
          "internalType": "uint256",
          "name": "id",
          "type": "uint256"
        }
      ],
      "name": "PriceUpdatedEvent",
      "type": "event"
    },
    {
      "anonymous": false,
      "inputs": [
        {
          "indexed": false,
          "internalType": "uint256",
          "name": "id",
          "type": "uint256"
        }
      ],
      "name": "ReceivedNewRequestIdEvent",
      "type": "event"
    },
    {
      "anonymous": false,
      "inputs": [
        {
          "indexed": false,
          "internalType": "address",
          "name": "oracleAddress",
          "type": "address"
        }
      ],
      "name": "newOracleAddressEvent",
      "type": "event"
    },
    {
      "inputs": [],
      "name": "owner",
      "outputs": [
        {
          "internalType": "address",
          "name": "",
          "type": "address"
        }
      ],
      "stateMutability": "view",
      "type": "function"
    },
    {
      "inputs": [],
      "name": "renounceOwnership",
      "outputs": [],
      "stateMutability": "nonpayable",
      "type": "function"
    },
    {
      "inputs": [
        {
          "internalType": "address",
          "name": "newOwner",
          "type": "address"
        }
      ],
      "name": "transferOwnership",
      "outputs": [],
      "stateMutability": "nonpayable",
      "type": "function"
    },
    {
      "inputs": [
        {
          "internalType": "address",
          "name": "_oracleInstanceAddress",
          "type": "address"
        }
      ],
      "name": "setOracleInstanceAddress",
      "outputs": [],
      "stateMutability": "nonpayable",
      "type": "function"
    },
    {
      "inputs": [],
      "name": "updateEthPrice",
      "outputs": [],
      "stateMutability": "nonpayable",
      "type": "function"
    },
    {
      "inputs": [
        {
          "internalType": "uint256",
          "name": "_ethPrice",
          "type": "uint256"
        },
        {
          "internalType": "uint256",
          "name": "_id",
          "type": "uint256"
        }
      ],
      "name": "callback",
      "outputs": [],
      "stateMutability": "nonpayable",
      "type": "function"
    }
  ],
  "bytecode": "0x608060405234801561001057600080fd5b5061002d61002261003260201b60201c565b61003a60201b60201c565b6100fe565b600033905090565b60008060009054906101000a900473ffffffffffffffffffffffffffffffffffffffff169050816000806101000a81548173ffffffffffffffffffffffffffffffffffffffff021916908373ffffffffffffffffffffffffffffffffffffffff1602179055508173ffffffffffffffffffffffffffffffffffffffff168173ffffffffffffffffffffffffffffffffffffffff167f8be0079c531659141344cd1fd0a4f28419497f9722a3daafe3b4186f6b6457e060405160405180910390a35050565b61095f8061010d6000396000f3fe608060405234801561001057600080fd5b50600436106100625760003560e01c806323c7e4a214610067578063715018a6146100715780638da5cb5b1461007b578063b5d73ba414610099578063e9e17a9e146100b5578063f2fde38b146100d1575b600080fd5b61006f6100ed565b005b6100796101ea565b005b6100836101fe565b6040516100909190610604565b60405180910390f35b6100b360048036038101906100ae919061065a565b610227565b005b6100cf60048036038101906100ca91906106c6565b6102ee565b005b6100eb60048036038101906100e691906106c6565b6103f6565b005b6000600260009054906101000a900473ffffffffffffffffffffffffffffffffffffffff1673ffffffffffffffffffffffffffffffffffffffff166330c0b9ec6040518163ffffffff1660e01b81526004016020604051808303816000875af115801561015e573d6000803e3d6000fd5b505050506040513d601f19601f820116820180604052508101906101829190610708565b905060016004600083815260200190815260200160002060006101000a81548160ff0219169083151502179055507f3ed150819af981e387450beb90ec379b8b322150dbb299d492b108c59a623e4b816040516101df9190610744565b60405180910390a150565b6101f2610479565b6101fc60006104f7565b565b60008060009054906101000a900473ffffffffffffffffffffffffffffffffffffffff16905090565b6004600082815260200190815260200160002060009054906101000a900460ff16610287576040517f08c379a000000000000000000000000000000000000000000000000000000000815260040161027e906107e2565b60405180910390fd5b816001819055506004600082815260200190815260200160002060006101000a81549060ff02191690557f6b69e4f2aedf7e65a79ecaf16e8869b2b99c87e341f2c51286bfd4a7fc3b996982826040516102e2929190610802565b60405180910390a15050565b6102f6610479565b80600360006101000a81548173ffffffffffffffffffffffffffffffffffffffff021916908373ffffffffffffffffffffffffffffffffffffffff160217905550600360009054906101000a900473ffffffffffffffffffffffffffffffffffffffff16600260006101000a81548173ffffffffffffffffffffffffffffffffffffffff021916908373ffffffffffffffffffffffffffffffffffffffff1602179055507f441e3b056b114797955165bd03bb8393fc1658a713f09225de4745a8d068bf7d600360009054906101000a900473ffffffffffffffffffffffffffffffffffffffff166040516103eb9190610604565b60405180910390a150565b6103fe610479565b600073ffffffffffffffffffffffffffffffffffffffff168173ffffffffffffffffffffffffffffffffffffffff160361046d576040517f08c379a00000000000000000000000000000000000000000000000000000000081526004016104649061089d565b60405180910390fd5b610476816104f7565b50565b6104816105bb565b73ffffffffffffffffffffffffffffffffffffffff1661049f6101fe565b73ffffffffffffffffffffffffffffffffffffffff16146104f5576040517f08c379a00000000000000000000000000000000000000000000000000000000081526004016104ec90610909565b60405180910390fd5b565b60008060009054906101000a900473ffffffffffffffffffffffffffffffffffffffff169050816000806101000a81548173ffffffffffffffffffffffffffffffffffffffff021916908373ffffffffffffffffffffffffffffffffffffffff1602179055508173ffffffffffffffffffffffffffffffffffffffff168173ffffffffffffffffffffffffffffffffffffffff167f8be0079c531659141344cd1fd0a4f28419497f9722a3daafe3b4186f6b6457e060405160405180910390a35050565b600033905090565b600073ffffffffffffffffffffffffffffffffffffffff82169050919050565b60006105ee826105c3565b9050919050565b6105fe816105e3565b82525050565b600060208201905061061960008301846105f5565b92915050565b600080fd5b6000819050919050565b61063781610624565b811461064257600080fd5b50565b6000813590506106548161062e565b92915050565b600080604083850312156106715761067061061f565b5b600061067f85828601610645565b925050602061069085828601610645565b9150509250929050565b6106a3816105e3565b81146106ae57600080fd5b50565b6000813590506106c08161069a565b92915050565b6000602082840312156106dc576106db61061f565b5b60006106ea848285016106b1565b91505092915050565b6000815190506107028161062e565b92915050565b60006020828403121561071e5761071d61061f565b5b600061072c848285016106f3565b91505092915050565b61073e81610624565b82525050565b60006020820190506107596000830184610735565b92915050565b600082825260208201905092915050565b7f546869732072657175657374206973206e6f7420696e206d792070656e64696e60008201527f67206c6973742e00000000000000000000000000000000000000000000000000602082015250565b60006107cc60278361075f565b91506107d782610770565b604082019050919050565b600060208201905081810360008301526107fb816107bf565b9050919050565b60006040820190506108176000830185610735565b6108246020830184610735565b9392505050565b7f4f776e61626c653a206e6577206f776e657220697320746865207a65726f206160008201527f6464726573730000000000000000000000000000000000000000000000000000602082015250565b600061088760268361075f565b91506108928261082b565b604082019050919050565b600060208201905081810360008301526108b68161087a565b9050919050565b7f4f776e61626c653a2063616c6c6572206973206e6f7420746865206f776e6572600082015250565b60006108f360208361075f565b91506108fe826108bd565b602082019050919050565b60006020820190508181036000830152610922816108e6565b905091905056fea2646970667358221220871fadd785318299d3ba608de48d447976574936f5b5c295a6bc5098bd603f8c64736f6c63430008110033",
  "immutableReferences": {},
  "source": "// SPDX-License-Identifier: MIT\npragma solidity >=0.4.22 <0.9.0;\n\nimport \"@openzeppelin/contracts/access/Ownable.sol\";\nimport \"./interfaces/EthPriceOracleInterface.sol\";\n\ncontract CallerContract is Ownable {\n    uint256 private ethPrice;\n    EthPriceOracleInterface private oracleInstance;\n    address private oracleAddress;\n    mapping(uint256 => bool) myRequests;\n\n    event newOracleAddressEvent(address oracleAddress);\n    event ReceivedNewRequestIdEvent(uint256 id);\n    event PriceUpdatedEvent(uint256 ethPrice, uint256 id);\n\n    modifier onlyOracle() {\n        require(\n            msg.sender == oracleAddress,\n            \"You are not authorized to call this function.\"\n        );\n        _;\n    }\n\n    function setOracleInstanceAddress(\n        address _oracleInstanceAddress\n    ) public onlyOwner {\n        oracleAddress = _oracleInstanceAddress;\n        oracleInstance = EthPriceOracleInterface(oracleAddress);\n        emit newOracleAddressEvent(oracleAddress);\n    }\n\n    function updateEthPrice() public {\n        uint256 id = oracleInstance.getLatestEthPrice();\n        myRequests[id] = true;\n        emit ReceivedNewRequestIdEvent(id);\n    }\n\n    function callback(uint256 _ethPrice, uint256 _id) public {\n        require(myRequests[_id], \"This request is not in my pending list.\");\n        ethPrice = _ethPrice;\n        delete myRequests[_id];\n        emit PriceUpdatedEvent(_ethPrice, _id);\n    }\n}\n",
  "sourcePath": "/home/den/Dev/oracle-example/caller/contracts/CallerContract.sol",
  "compiler": {
    "name": "solc",
    "version": "0.8.17+commit.8df45f5f.Emscripten.clang"
  },
  "schemaVersion": "3.4.11",
  "updatedAt": "2023-01-06T19:57:03.634Z",
  "devdoc": {
    "kind": "dev",
    "methods": {
      "owner()": {
        "details": "Returns the address of the current owner."
      },
      "renounceOwnership()": {
        "details": "Leaves the contract without owner. It will not be possible to call `onlyOwner` functions anymore. Can only be called by the current owner. NOTE: Renouncing ownership will leave the contract without an owner, thereby removing any functionality that is only available to the owner."
      },
      "transferOwnership(address)": {
        "details": "Transfers ownership of the contract to a new account (`newOwner`). Can only be called by the current owner."
      }
    },
    "version": 1
  },
  "userdoc": {
    "kind": "user",
    "methods": {},
    "version": 1
  }
}