{
  "contractName": "CallerContract",
  "abi": [
    {
      "anonymous": false,
      "inputs": [
        {
          "indexed": true,
          "internalType": "address",
          "name": "previousOwner",
          "type": "address"
        },
        {
          "indexed": true,
          "internalType": "address",
          "name": "newOwner",
          "type": "address"
        }
      ],
      "name": "OwnershipTransferred",
      "type": "event"
    },
    {
      "inputs": [],
      "name": "owner",
      "outputs": [
        {
          "internalType": "address",
          "name": "",
          "type": "address"
        }
      ],
      "stateMutability": "view",
      "type": "function"
    },
    {
      "inputs": [],
      "name": "renounceOwnership",
      "outputs": [],
      "stateMutability": "nonpayable",
      "type": "function"
    },
    {
      "inputs": [
        {
          "internalType": "address",
          "name": "newOwner",
          "type": "address"
        }
      ],
      "name": "transferOwnership",
      "outputs": [],
      "stateMutability": "nonpayable",
      "type": "function"
    },
    {
      "inputs": [
        {
          "internalType": "address",
          "name": "_oracleInstanceAddress",
          "type": "address"
        }
      ],
      "name": "setOracleInstanceAddress",
      "outputs": [],
      "stateMutability": "nonpayable",
      "type": "function"
    }
  ],
  "bytecode": "0x608060405234801561001057600080fd5b5061002d61002261003260201b60201c565b61003a60201b60201c565b6100fe565b600033905090565b60008060009054906101000a900473ffffffffffffffffffffffffffffffffffffffff169050816000806101000a81548173ffffffffffffffffffffffffffffffffffffffff021916908373ffffffffffffffffffffffffffffffffffffffff1602179055508173ffffffffffffffffffffffffffffffffffffffff168173ffffffffffffffffffffffffffffffffffffffff167f8be0079c531659141344cd1fd0a4f28419497f9722a3daafe3b4186f6b6457e060405160405180910390a35050565b6105698061010d6000396000f3fe608060405234801561001057600080fd5b506004361061004c5760003560e01c8063715018a6146100515780638da5cb5b1461005b578063e9e17a9e14610079578063f2fde38b14610095575b600080fd5b6100596100b1565b005b6100636100c5565b60405161007091906103ab565b60405180910390f35b610093600480360381019061008e91906103f7565b6100ee565b005b6100af60048036038101906100aa91906103f7565b61019d565b005b6100b9610220565b6100c3600061029e565b565b60008060009054906101000a900473ffffffffffffffffffffffffffffffffffffffff16905090565b6100f6610220565b80600260006101000a81548173ffffffffffffffffffffffffffffffffffffffff021916908373ffffffffffffffffffffffffffffffffffffffff160217905550600260009054906101000a900473ffffffffffffffffffffffffffffffffffffffff16600160006101000a81548173ffffffffffffffffffffffffffffffffffffffff021916908373ffffffffffffffffffffffffffffffffffffffff16021790555050565b6101a5610220565b600073ffffffffffffffffffffffffffffffffffffffff168173ffffffffffffffffffffffffffffffffffffffff1603610214576040517f08c379a000000000000000000000000000000000000000000000000000000000815260040161020b906104a7565b60405180910390fd5b61021d8161029e565b50565b610228610362565b73ffffffffffffffffffffffffffffffffffffffff166102466100c5565b73ffffffffffffffffffffffffffffffffffffffff161461029c576040517f08c379a000000000000000000000000000000000000000000000000000000000815260040161029390610513565b60405180910390fd5b565b60008060009054906101000a900473ffffffffffffffffffffffffffffffffffffffff169050816000806101000a81548173ffffffffffffffffffffffffffffffffffffffff021916908373ffffffffffffffffffffffffffffffffffffffff1602179055508173ffffffffffffffffffffffffffffffffffffffff168173ffffffffffffffffffffffffffffffffffffffff167f8be0079c531659141344cd1fd0a4f28419497f9722a3daafe3b4186f6b6457e060405160405180910390a35050565b600033905090565b600073ffffffffffffffffffffffffffffffffffffffff82169050919050565b60006103958261036a565b9050919050565b6103a58161038a565b82525050565b60006020820190506103c0600083018461039c565b92915050565b600080fd5b6103d48161038a565b81146103df57600080fd5b50565b6000813590506103f1816103cb565b92915050565b60006020828403121561040d5761040c6103c6565b5b600061041b848285016103e2565b91505092915050565b600082825260208201905092915050565b7f4f776e61626c653a206e6577206f776e657220697320746865207a65726f206160008201527f6464726573730000000000000000000000000000000000000000000000000000602082015250565b6000610491602683610424565b915061049c82610435565b604082019050919050565b600060208201905081810360008301526104c081610484565b9050919050565b7f4f776e61626c653a2063616c6c6572206973206e6f7420746865206f776e6572600082015250565b60006104fd602083610424565b9150610508826104c7565b602082019050919050565b6000602082019050818103600083015261052c816104f0565b905091905056fea26469706673582212207f5dc51995c0a77736e1b019fa85709a6edcb4006a6180482e319a02f0bd22d564736f6c63430008110033",
  "immutableReferences": {},
  "source": "// SPDX-License-Identifier: MIT\npragma solidity >=0.4.22 <0.9.0;\n\nimport \"@openzeppelin/contracts/access/Ownable.sol\";\nimport \"./interfaces/EthPriceOracleInterface.sol\";\n\ncontract CallerContract is Ownable {\n    EthPriceOracleInterface private oracleInstance;\n    address private oracleAddress;\n\n    function setOracleInstanceAddress(address _oracleInstanceAddress) public onlyOwner {\n        oracleAddress = _oracleInstanceAddress;\n        oracleInstance = EthPriceOracleInterface(oracleAddress);\n    }\n}\n",
  "sourcePath": "/home/den/Dev/oracle-example/caller/contracts/CallerContract.sol",
  "compiler": {
    "name": "solc",
    "version": "0.8.17+commit.8df45f5f.Emscripten.clang"
  },
  "schemaVersion": "3.4.11",
  "updatedAt": "2023-01-06T10:17:14.316Z",
  "devdoc": {
    "kind": "dev",
    "methods": {
      "owner()": {
        "details": "Returns the address of the current owner."
      },
      "renounceOwnership()": {
        "details": "Leaves the contract without owner. It will not be possible to call `onlyOwner` functions anymore. Can only be called by the current owner. NOTE: Renouncing ownership will leave the contract without an owner, thereby removing any functionality that is only available to the owner."
      },
      "transferOwnership(address)": {
        "details": "Transfers ownership of the contract to a new account (`newOwner`). Can only be called by the current owner."
      }
    },
    "version": 1
  },
  "userdoc": {
    "kind": "user",
    "methods": {},
    "version": 1
  }
}